:100000000C945C000C9479000C9479000C947900A9
:100010000C9479000C9479000C9479000C9479007C
:100020000C9479000C9479000C9479000C9479006C
:100030000C9479000C9479000C9479000C9479005C
:100040000C94C8030C9479000C9479000C947900FA
:100050000C9479000C9479000C9479000C9479003C
:100060000C9479000C947900000000002400270013
:100070002A0000000000250028002B0004040404CE
:100080000404040402020202020203030303030342
:10009000010204081020408001020408102001021F
:1000A00004081020000000080002010000030407FB
:1000B000000000000000000011241FBECFEFD8E0B8
:1000C000DEBFCDBF11E0A0E0B1E0E0EAF1E102C0A7
:1000D00005900D92A431B107D9F721E0A4E1B1E078
:1000E00001C01D92AD31B207E1F70E9412040C94D9
:1000F000CE080C94000090E0FC01EC55FF4F2491D9
:10010000FC01E057FF4F3491FC01E458FF4FE491AC
:10011000EE23C9F0222339F0233001F1A8F4213075
:1001200019F1223029F1F0E0EE0FFF1FEE58FF4FDA
:10013000A591B4918FB7F894EC91611126C03095D8
:100140003E233C938FBF08952730A9F02830C9F093
:10015000243049F7809180008F7D03C0809180001A
:100160008F7780938000DFCF84B58F7784BDDBCF1E
:1001700084B58F7DFBCF8091B0008F778093B000E6
:10018000D2CF8091B0008F7DF9CF3E2BDACF3FB731
:10019000F8948091190190911A01A0911B01B091DE
:1001A0001C0126B5A89B05C02F3F19F00196A11D83
:1001B000B11D3FBFBA2FA92F982F8827BC01CD01B1
:1001C000620F711D811D911D42E0660F771F881F10
:1001D000991F4A95D1F708958F929F92AF92BF923F
:1001E000CF92DF92EF92FF926B017C010E94C700D9
:1001F0004B015C01C114D104E104F104B9F00E9487
:10020000C700681979098A099B09683E734081050E
:10021000910580F321E0C21AD108E108F10888EEC7
:10022000880E83E0981EA11CB11CE4CFFF90EF90D4
:10023000DF90CF90BF90AF909F908F9008951F93C5
:10024000CF93DF93182FC4E0D1E088812296612FED
:100250000E947B0081E0C431D807B9F7DF91CF91CC
:100260001F910895CF92DF92EF92FF921F93CF9349
:10027000DF937C01C4E0D1E06C0181E0C8261881E5
:1002800022966E2D812F0E947B006AEF70E080E045
:1002900090E00E94EC006C2D812F0E947B0081E099
:1002A000C431D80761F7DF91CF911F91FF90EF9094
:1002B000DF90CF900895CF92DF92EF92FF921F933D
:1002C000CF93DF937C01C4E1D1E06C0181E0C826CB
:1002D000229718816E2D812F0E947B006AEF70E0BB
:1002E00080E090E00E94EC006C2D812F0E947B004A
:1002F00081E0C430D80761F7DF91CF911F91FF9063
:10030000EF90DF90CF900895DF92EF92FF920F93DE
:100310001F93CF93DF9324E0E22E21E0F22E87019A
:10032000D82E21E08227C82FF801D0810E5F1F4F01
:100330006D2D8D2F0E947B006AEF70E080E090E0D1
:100340000E94EC006C2F8D2F0E947B00F1E00431A5
:100350001F0751F700E111E0F801D0816D2D8D2FBD
:100360000E947B006AEF70E080E090E00E94EC0069
:100370006C2F8D2F0E947B0002501109E016F106B0
:1003800059F7DF91CF911F910F91FF90EF90DF9080
:1003900008950F931F93CF93DF938C0121E0822761
:1003A0000E941F01C4E0D1E088812296602F0E9444
:1003B0007B006AEF70E080E090E00E94EC0081E05A
:1003C000C431D80789F7DF91CF911F910F9108951C
:1003D0000F931F93CF93DF938C0121E082270E941C
:1003E0001F01C4E1D1E02297602F88810E947B0029
:1003F0006AEF70E080E090E00E94EC0081E0C430A1
:10040000D80789F7DF91CF911F910F9108950F932E
:100410001F93CF93DF938C010E941F016AEF70E05E
:1004200080E090E00E94EC00C4E0D1E081E0082789
:1004300088812296602F0E947B006AEF70E080E046
:1004400090E00E94EC0081E0C431D80789F7DF9189
:10045000CF911F910F9108950F931F93CF93DF9327
:100460008C010E941F016AEF70E080E090E00E9422
:10047000EC00C4E1D1E081E008272297602F888159
:100480000E947B006AEF70E080E090E00E94EC0048
:1004900081E0C430D80789F7DF91CF911F910F9188
:1004A0000895CF93C82F6AEF70E080E090E00E943B
:1004B000EC006C2F8EE00E947B006C2F8DE00E9480
:1004C0007B006AEF70E080E090E00E94EC006C2F0F
:1004D0008CE00E947B006C2F8FE00E947B006AEF13
:1004E00070E080E090E00E94EC006C2F8BE00E94B6
:1004F0007B006C2F80E10E947B006AEF70E080E05F
:1005000090E00E94EC006C2F8AE00E947B006C2F30
:1005100081E10E947B006AEF70E080E090E0CF9183
:100520000C94EC00CF93C82F682F8AE00E947B00C8
:100530006C2F81E10E947B006AEF70E080E090E028
:100540000E94EC006C2F8BE00E947B006C2F80E1FE
:100550000E947B006AEF70E080E090E00E94EC0077
:100560006C2F8CE00E947B006C2F8FE00E947B0040
:100570006AEF70E080E090E00E94EC006C2F8EE06B
:100580000E947B006C2F8DE00E947B006AEF70E080
:1005900080E090E0CF910C94EC00BF92CF92DF927C
:1005A000EF92FF920F931F93CF93DF93C7E0D0E0BA
:1005B000B82E8C0121E002276B2D8AE00E947B007F
:1005C0006AEF70E080E090E00E94EC0084E0E82EAA
:1005D00081E0F82ED12CC12CCC16DD06BCF4F7013D
:1005E0008081F2E0EF0EF11C602F0E947B002FEF64
:1005F000C21AD20A6B2DF70180810E947B006AEF3C
:1006000070E080E090E00E94EC00E6CF2197A0F639
:10061000DF91CF911F910F91FF90EF90DF90CF90DE
:10062000BF900895BF92CF92DF92EF92FF920F9307
:100630001F93CF93DF93C1E0D0E0B82E8C0121E06F
:1006400002276B2D81E10E947B006AEF70E080E061
:1006500090E00E94EC0084E0E82E81E0F82E97E024
:10066000C92ED12C82E0E81AF108CC16DD06A4F0E0
:10067000602FF70180890E947B00F1E0CF1AD1083A
:100680006B2DF70186850E947B006AEF70E080E0A9
:1006900090E00E94EC00E6CF2196C930D10589F6A2
:1006A000DF91CF911F910F91FF90EF90DF90CF904E
:1006B000BF900895AF92BF92CF92DF92EF92FF92D8
:1006C0000F931F93CF93DF93EC0184E0E82E81E03A
:1006D000F82E67018E0181E00827F701A080F2E083
:1006E000EF0EF11C6C2F8A2D0E947B00F601B68460
:1006F0006C2F8B2D0E947B006AEF70E080E090E011
:100700000E94EC00602F8A2D0E947B00602F8B2DB1
:100710000E947B00F2E0CF1AD1088CE0E81681E05D
:10072000F806D9F66C2F8CE00E947B006C2F8FE0CE
:100730000E947B006AEF70E080E090E00E94EC0095
:10074000602F8CE00E947B00602F8FE00E947B0076
:100750006C2F8BE00E947B006C2F80E10E947B005D
:100760006AEF70E080E090E00E94EC00602F8BE088
:100770000E947B00602F80E1DF91CF911F910F914C
:10078000FF90EF90DF90CF90BF90AF900C947B00E4
:100790001F920F920FB60F9211242F933F938F93B6
:1007A0009F93AF93BF938091150190911601A091F3
:1007B0001701B09118013091140123E0230F2D3758
:1007C00058F50196A11DB11D2093140180931501C8
:1007D00090931601A0931701B0931801809119010D
:1007E00090911A01A0911B01B0911C010196A11DCD
:1007F000B11D8093190190931A01A0931B01B0932E
:100800001C01BF91AF919F918F913F912F910F90BC
:100810000FBE0F901F90189526E8230F0296A11D7A
:10082000B11DD2CF789484B5826084BD84B58160D7
:1008300084BD85B5826085BD85B5816085BD8091AB
:100840006E00816080936E00109281008091810023
:10085000826080938100809181008160809381001B
:10086000809180008160809380008091B1008460DD
:100870008093B1008091B00081608093B00080913E
:100880007A00846080937A0080917A0082608093FD
:100890007A0080917A00816080937A0080917A005A
:1008A000806880937A001092C100C4E0D1E0899101
:1008B00099919927FC01E057FF4F249184589F4F4D
:1008C000FC018491882399F090E0880F991FFC0126
:1008D000E859FF4FA591B491FC01EE58FF4F859167
:1008E00094918FB7F894EC91E22BEC938FBFF1E0E9
:1008F000C431DF07E1F690E080E00E941F0118E0BC
:10090000412E512C612C712C00E0802E00E0902EA5
:1009100003E010E0B3E0EB2EF12C81E090E00E94C8
:100920001F016DE770E080E090E00E94EC0090E035
:1009300080E00E941F016DE770E080E090E00E947F
:10094000EC0081E0E81AF10841F70150110911F7B4
:1009500081E090E00E94320181E090E00E9432014B
:1009600081E090E00E94320181E090E00E945B0112
:1009700081E090E00E945B0181E090E00E945B01D9
:1009800081E090E00E94840181E090E00E94840177
:1009900081E090E00E9484010FE010E081E090E0AF
:1009A0000E945A0301501109C9F7A3E0EA2EF12C65
:1009B000F3E0CF2ED12CE4E0AE2EE1E0BE2E10E02D
:1009C00000E0F5018081F2E0AF0EB11CB801609546
:1009D0007095617077270E947B000F5F1F4F083072
:1009E000110579F76AEF70E080E090E00E94EC007A
:1009F00074E0A72E71E0B72E10E000E0F5018081D1
:100A0000F2E0AF0EB11C602F61700E947B000F5F9F
:100A10001F4F0830110591F76AEF70E080E090E019
:100A20000E94EC0081E0C81AD10829F691E0E91A89
:100A3000F10809F0BDCF03E010E064E0E62EF12CF0
:100A400054E0C52ED12C61E08EE00E947B0061E075
:100A50008FE00E947B0061E080E10E947B0061E00A
:100A600081E10E947B006DE770E080E090E00E94F1
:100A7000EC0060E08EE00E947B0060E08FE00E946E
:100A80007B0060E080E10E947B0060E081E10E94E9
:100A90007B006DE770E080E090E00E94EC00E1E018
:100AA000CE1AD10881F644E0C42ED12C61E08DE04D
:100AB0000E947B0061E08CE00E947B0061E08BE0A3
:100AC0000E947B0061E08AE00E947B006DE770E09D
:100AD00080E090E00E94EC0060E08DE00E947B00EE
:100AE00060E08CE00E947B0060E08BE00E947B0075
:100AF00060E08AE00E947B006DE770E080E090E0BB
:100B00000E94EC00F1E0CF1AD10881F681E0E81AEA
:100B1000F10809F095CF0150110909F08ECF81E05D
:100B200090E00E94C90181E090E00E94C90181E04B
:100B300090E00E94C90181E090E00E94E80181E01C
:100B400090E00E94E80181E090E00E94E80181E0ED
:100B500090E00E94070281E090E00E94070281E09D
:100B600090E00E94070281E090E00E942C0281E068
:100B700090E00E942C0281E090E00E942C0281E033
:100B800090E00E94C90181E090E00E94070281E0AC
:100B900090E00E94C90181E090E00E94070281E09C
:100BA00090E00E94C90181E090E00E94070281E08C
:100BB00090E00E94E80181E090E00E942C0281E038
:100BC00090E00E94E80181E090E00E942C0281E028
:100BD00090E00E94E80181E090E00E942C0203E096
:100BE00010E090E080E00E941F016AEF70E080E07A
:100BF00090E00E94EC0081E090E00E9451020150E0
:100C0000110979F703E010E090E080E00E941F01F5
:100C10006AEF70E080E090E00E94EC0081E090E0FC
:100C20000E9492020150110979F703E010E081E07F
:100C300090E00E941F016AEF70E080E090E00E9467
:100C4000EC0090E080E00E9451020150110979F718
:100C500003E010E081E090E00E941F016AEF70E085
:100C600080E090E00E94EC0090E080E00E94920220
:100C70000150110979F703E010E090E080E00E9454
:100C80001F016AEF70E080E090E00E94EC0081E0DC
:100C900090E00E94510281E090E00E941F016AEF03
:100CA00070E080E090E00E94EC0090E080E00E9424
:100CB00051020150110909F703E010E090E080E0D3
:100CC0000E941F016AEF70E080E090E00E94EC005B
:100CD00081E090E00E94920281E090E00E941F017A
:100CE0006AEF70E080E090E00E94EC0090E080E02D
:100CF0000E9492020150110909F790E080E00E94E1
:100D0000320190E080E00E94320190E080E00E9499
:100D1000320190E080E00E945B0190E080E00E9460
:100D20005B0190E080E00E945B0190E080E00E9427
:100D3000840190E080E00E94840190E080E00E94C5
:100D400084010FE010E081E090E00E945A0301501E
:100D50001109C9F790E080E00E941F0181E090E056
:100D60000E94CD0290E080E00E941F0181E090E0AF
:100D70000E94CD0290E080E00E941F0181E090E09F
:100D80000E94CD0290E080E00E941F0181E090E08F
:100D90000E94120390E080E00E941F0181E090E039
:100DA0000E94120390E080E00E941F0181E090E029
:100DB0000E94120381E090E00E941F0190E080E019
:100DC0000E94120381E090E00E941F0190E080E009
:100DD0000E94120381E090E00E941F0190E080E0F9
:100DE0000E94120381E090E00E941F0190E080E0E9
:100DF0000E94120381E090E00E941F0190E080E0D9
:100E00000E94120381E090E00E941F0190E080E0C8
:100E10000E94120381E090E00E94CD0290E080E009
:100E20000E94120381E090E00E94CD0290E080E0F9
:100E30000E94120381E090E00E94CD0290E080E0E9
:100E40000E94120381E090E00E94120390E080E093
:100E50000E94CD0281E090E00E94120390E080E0C9
:100E60000E94CD0281E090E00E94120390E080E0B9
:100E70000E94CD0281E090E00E94CD0290E080E0EF
:100E80000E94CD0281E090E00E94CD0290E080E0DF
:100E90000E94CD0281E090E00E94CD0290E080E0CF
:100EA0000E94CD0281E090E00E94120390E080E079
:100EB0000E94120381E090E00E94120390E080E023
:100EC0000E94120381E090E00E94120390E080E013
:100ED0000E94120333E0E32EF12C27E0C22ED12C26
:100EE00004E011E00E941308F801B0800E5F1F4F6C
:100EF00022E030E040E050E00E946B088B2D0E9421
:100F00007B00C017D10771F76AEF70E080E090E0D6
:100F10000E94EC00F1E0CF1AD10811F790E080E0D8
:100F20000E941F0181E0E81AF108B9F603E010E021
:100F30009AE0E92EF12C0E941308A30192010E946D
:100F40006B08660F771F6C5F7E4FFB01D08061E0FE
:100F50008D2D0E947B006AEF70E080E090E00E949F
:100F6000EC0060E08D2D0E947B00F1E0EF1AF108AB
:100F700011F790E080E00E941F0101501109C1F6B5
:100F80008114910409F4C4CC0E940000C1CC8F925A
:100F90009F92AF92BF92CF92DF92EF92FF92CF9348
:100FA000DF93EC01688179818A819B8161157105EC
:100FB0008105910521F464E279ED8BE597E02DE15F
:100FC00033EF41E050E00E946B0849015A019B0158
:100FD000AC01A7EAB1E40E948A086B017C01ACEE87
:100FE000B4EFA50194010E949808C60ED71EE81E12
:100FF000F91EF7FE06C081E0C81AD108E10880E8B2
:10100000F80AC882D982EA82FB82C701B6019F77BB
:10101000DF91CF91FF90EF90DF90CF90BF90AF9096
:101020009F908F9008958F929F92AF92BF92CF9290
:10103000DF92EF92FF926091000170910101809127
:10104000020190910301611571058105910521F45B
:1010500064E279ED8BE597E02DE133EF41E050E07C
:101060000E946B0849015A019B01AC01A7EAB1E457
:101070000E948A086B017C01ACEEB4EFA5019401DB
:101080000E949808C60ED71EE81EF91EF7FE06C07D
:1010900081E0C81AD108E10880E8F80AC09200018E
:1010A000D0920101E0920201F0920301C701B60162
:1010B0009F77FF90EF90DF90CF90BF90AF909F9081
:1010C0008F90089560930001709301018093020155
:1010D000909303010895052E97FB1EF400940E943F
:1010E000820857FD07D00E949D0807FC03D04EF4EC
:1010F0000C94820850954095309521953F4F4F4F65
:101100005F4F089590958095709561957F4F8F4FB3
:101110009F4F08950E94BF08A59F900DB49F900D0A
:10112000A49F800D911D11240895B7FF0C948A0887
:101130000E948A08821B930B0895A1E21A2EAA1B13
:10114000BB1BFD010DC0AA1FBB1FEE1FFF1FA21777
:10115000B307E407F50720F0A21BB30BE40BF50B74
:10116000661F771F881F991F1A9469F760957095FD
:10117000809590959B01AC01BD01CF010895A29F80
:10118000B001B39FC001A39F700D811D1124911D5B
:10119000B29F700D811D1124911D0895F894FFCF09
:1011A000010000000A000B000C000D000E000F00F3
:0411B000100011001A
:00000001FF
